{
  "transactions": [
    {
      "hash": "0x3c3d7f4ae4200feefa282d2eeb41cd1fe86b6a0c2234b0206fb2f0c0c942b4ee",
      "transactionType": "CALL",
      "contractName": null,
      "contractAddress": "0x10cea50486207f88abc954690fe80783e73c3bfe",
      "function": "approve(address,uint256)",
      "arguments": [
        "0x000000000022D473030F116dDEE9F6B43aC78BA3",
        "115792089237316195423570985008687907853269984665640564039457584007913129639935"
      ],
      "transaction": {
        "from": "0x12b2434a1022d5787bf06056f2885fe35de62bf8",
        "to": "0x10cea50486207f88abc954690fe80783e73c3bfe",
        "gas": "0xfe8e",
        "value": "0x0",
        "input": "0x095ea7b3000000000000000000000000000000000022d473030f116ddee9f6b43ac78ba3ffffffffffffffffffffffffffffffffffffffffffffffffffffffffffffffff",
        "nonce": "0x26b",
        "chainId": "0x14a34"
      },
      "additionalContracts": [],
      "isFixedGasLimit": false
    },
    {
      "hash": "0x6563380c0c5456fc08d68921d716cda4eff4c501ff4a5335ec1a696c8539f26c",
      "transactionType": "CALL",
      "contractName": null,
      "contractAddress": "0x000000000022d473030f116ddee9f6b43ac78ba3",
      "function": "approve(address,address,uint160,uint48)",
      "arguments": [
        "0x10CEA50486207f88AbC954690fE80783E73c3BfE",
        "0x4B2C77d209D3405F41a037Ec6c77F7F5b8e2ca80",
        "1461501637330902918203684832716283019655932542975",
        "281474976710655"
      ],
      "transaction": {
        "from": "0x12b2434a1022d5787bf06056f2885fe35de62bf8",
        "to": "0x000000000022d473030f116ddee9f6b43ac78ba3",
        "gas": "0x1112d",
        "value": "0x0",
        "input": "0x87517c4500000000000000000000000010cea50486207f88abc954690fe80783e73c3bfe0000000000000000000000004b2c77d209d3405f41a037ec6c77f7f5b8e2ca80000000000000000000000000ffffffffffffffffffffffffffffffffffffffff0000000000000000000000000000000000000000000000000000ffffffffffff",
        "nonce": "0x26c",
        "chainId": "0x14a34"
      },
      "additionalContracts": [],
      "isFixedGasLimit": false
    },
    {
      "hash": "0x6651904d190fbd45692e717ecb8774a803396f8c9163b612b3dc1d719382dd3f",
      "transactionType": "CALL",
      "contractName": null,
      "contractAddress": "0x8b39c6b0fb43d18bf2b82f9d6bfd966c173da42a",
      "function": "approve(address,uint256)",
      "arguments": [
        "0x000000000022D473030F116dDEE9F6B43aC78BA3",
        "115792089237316195423570985008687907853269984665640564039457584007913129639935"
      ],
      "transaction": {
        "from": "0x12b2434a1022d5787bf06056f2885fe35de62bf8",
        "to": "0x8b39c6b0fb43d18bf2b82f9d6bfd966c173da42a",
        "gas": "0xfe8e",
        "value": "0x0",
        "input": "0x095ea7b3000000000000000000000000000000000022d473030f116ddee9f6b43ac78ba3ffffffffffffffffffffffffffffffffffffffffffffffffffffffffffffffff",
        "nonce": "0x26d",
        "chainId": "0x14a34"
      },
      "additionalContracts": [],
      "isFixedGasLimit": false
    },
    {
      "hash": "0x27c75952e64bf5a89a6a9ba887323d632a6d501337e23922be054830944bf6df",
      "transactionType": "CALL",
      "contractName": null,
      "contractAddress": "0x000000000022d473030f116ddee9f6b43ac78ba3",
      "function": "approve(address,address,uint160,uint48)",
      "arguments": [
        "0x8b39C6b0FB43D18Bf2b82f9D6BfD966c173dA42A",
        "0x4B2C77d209D3405F41a037Ec6c77F7F5b8e2ca80",
        "1461501637330902918203684832716283019655932542975",
        "281474976710655"
      ],
      "transaction": {
        "from": "0x12b2434a1022d5787bf06056f2885fe35de62bf8",
        "to": "0x000000000022d473030f116ddee9f6b43ac78ba3",
        "gas": "0x1112d",
        "value": "0x0",
        "input": "0x87517c450000000000000000000000008b39c6b0fb43d18bf2b82f9d6bfd966c173da42a0000000000000000000000004b2c77d209d3405f41a037ec6c77f7f5b8e2ca80000000000000000000000000ffffffffffffffffffffffffffffffffffffffff0000000000000000000000000000000000000000000000000000ffffffffffff",
        "nonce": "0x26e",
        "chainId": "0x14a34"
      },
      "additionalContracts": [],
      "isFixedGasLimit": false
    },
    {
      "hash": "0x5055db5a536b87329620b57563b7ff1954be15ca889998746285a671c3e8e704",
      "transactionType": "CALL",
      "contractName": null,
      "contractAddress": "0x4b2c77d209d3405f41a037ec6c77f7f5b8e2ca80",
      "function": "multicall(bytes[])",
      "arguments": [
        "[0xf702040500000000000000000000000010cea50486207f88abc954690fe80783e73c3bfe0000000000000000000000008b39c6b0fb43d18bf2b82f9d6bfd966c173da42a0000000000000000000000000000000000000000000000000000000000000bb8000000000000000000000000000000000000000000000000000000000000003c00000000000000000000000000000000000000000000000000000000000000000000000000000000000000000000000000000000b504f333f9de6484597d89b3, 0xdd46508f000000000000000000000000000000000000000000000000000000000000004000000000000000000000000000000000000000000000000000000000684728f40000000000000000000000000000000000000000000000000000000000000300000000000000000000000000000000000000000000000000000000000000004000000000000000000000000000000000000000000000000000000000000000800000000000000000000000000000000000000000000000000000000000000002020d00000000000000000000000000000000000000000000000000000000000000000000000000000000000000000000000000000000000000000000000000020000000000000000000000000000000000000000000000000000000000000040000000000000000000000000000000000000000000000000000000000000020000000000000000000000000000000000000000000000000000000000000001a000000000000000000000000010cea50486207f88abc954690fe80783e73c3bfe0000000000000000000000008b39c6b0fb43d18bf2b82f9d6bfd966c173da42a0000000000000000000000000000000000000000000000000000000000000bb8000000000000000000000000000000000000000000000000000000000000003c0000000000000000000000000000000000000000000000000000000000000000ffffffffffffffffffffffffffffffffffffffffffffffffffffffffffffcd9cfffffffffffffffffffffffffffffffffffffffffffffffffffffffffffffc7c00000000000000000000000000000000000000000000021e19e0c9bab240000000000000000000000000000000000000000000000000018f30b6d95a0bd422760000000000000000000000000000000000000000000000c5c9c0ac1dd6406f4a0000000000000000000000001804c8ab1f12e6bbf3894d4083f33e07309d1f3800000000000000000000000000000000000000000000000000000000000001800000000000000000000000000000000000000000000000000000000000000000000000000000000000000000000000000000000000000000000000000000004000000000000000000000000010cea50486207f88abc954690fe80783e73c3bfe0000000000000000000000008b39c6b0fb43d18bf2b82f9d6bfd966c173da42a]"
      ],
      "transaction": {
        "from": "0x12b2434a1022d5787bf06056f2885fe35de62bf8",
        "to": "0x4b2c77d209d3405f41a037ec6c77f7f5b8e2ca80",
        "gas": "0x93b2b",
        "value": "0x0",
        "input": "0xac9650d8000000000000000000000000000000000000000000000000000000000000002000000000000000000000000000000000000000000000000000000000000000020000000000000000000000000000000000000000000000000000000000000040000000000000000000000000000000000000000000000000000000000000014000000000000000000000000000000000000000000000000000000000000000c4f702040500000000000000000000000010cea50486207f88abc954690fe80783e73c3bfe0000000000000000000000008b39c6b0fb43d18bf2b82f9d6bfd966c173da42a0000000000000000000000000000000000000000000000000000000000000bb8000000000000000000000000000000000000000000000000000000000000003c00000000000000000000000000000000000000000000000000000000000000000000000000000000000000000000000000000000b504f333f9de6484597d89b3000000000000000000000000000000000000000000000000000000000000000000000000000000000000000000000000000000000000000000000364dd46508f000000000000000000000000000000000000000000000000000000000000004000000000000000000000000000000000000000000000000000000000684728f40000000000000000000000000000000000000000000000000000000000000300000000000000000000000000000000000000000000000000000000000000004000000000000000000000000000000000000000000000000000000000000000800000000000000000000000000000000000000000000000000000000000000002020d00000000000000000000000000000000000000000000000000000000000000000000000000000000000000000000000000000000000000000000000000020000000000000000000000000000000000000000000000000000000000000040000000000000000000000000000000000000000000000000000000000000020000000000000000000000000000000000000000000000000000000000000001a000000000000000000000000010cea50486207f88abc954690fe80783e73c3bfe0000000000000000000000008b39c6b0fb43d18bf2b82f9d6bfd966c173da42a0000000000000000000000000000000000000000000000000000000000000bb8000000000000000000000000000000000000000000000000000000000000003c0000000000000000000000000000000000000000000000000000000000000000ffffffffffffffffffffffffffffffffffffffffffffffffffffffffffffcd9cfffffffffffffffffffffffffffffffffffffffffffffffffffffffffffffc7c00000000000000000000000000000000000000000000021e19e0c9bab240000000000000000000000000000000000000000000000000018f30b6d95a0bd422760000000000000000000000000000000000000000000000c5c9c0ac1dd6406f4a0000000000000000000000001804c8ab1f12e6bbf3894d4083f33e07309d1f3800000000000000000000000000000000000000000000000000000000000001800000000000000000000000000000000000000000000000000000000000000000000000000000000000000000000000000000000000000000000000000000004000000000000000000000000010cea50486207f88abc954690fe80783e73c3bfe0000000000000000000000008b39c6b0fb43d18bf2b82f9d6bfd966c173da42a00000000000000000000000000000000000000000000000000000000",
        "nonce": "0x26f",
        "chainId": "0x14a34"
      },
      "additionalContracts": [],
      "isFixedGasLimit": false
    }
  ],
  "receipts": [
    {
      "status": "0x1",
      "cumulativeGasUsed": "0x25afce",
      "logs": [
        {
          "address": "0x10cea50486207f88abc954690fe80783e73c3bfe",
          "topics": [
            "0x8c5be1e5ebec7d5bd14f71427d1e84f3dd0314c0f7b2291e5b200ac8c7c3b925",
            "0x00000000000000000000000012b2434a1022d5787bf06056f2885fe35de62bf8",
            "0x000000000000000000000000000000000022d473030f116ddee9f6b43ac78ba3"
          ],
          "data": "0xffffffffffffffffffffffffffffffffffffffffffffffffffffffffffffffff",
          "blockHash": "0xe96a797fc1ac420aef6564bdb88b51023e363ffe8ed503d532865880dd8299be",
          "blockNumber": "0x199e4f4",
          "blockTimestamp": "0x684728c8",
          "transactionHash": "0x3c3d7f4ae4200feefa282d2eeb41cd1fe86b6a0c2234b0206fb2f0c0c942b4ee",
          "transactionIndex": "0xb",
          "logIndex": "0x26",
          "removed": false
        }
      ],
      "logsBloom": "0x00000000000000000000000000000000000000000000000000000000000000000000000000000000000000000000000000000000800000000000000000200000000000000000000000004000200000000000000000000800000000000000000000000080000000000000000000000000000000000000000000000000000000000000000000000000000000000000000000000000000000000000000000000010020000000000000000000000000000000004080400000000000000000000000000000000000000000000000000000000000000000000000000000000000000000010000000000000000000000000000000000000000000000000000000000000",
      "type": "0x2",
      "transactionHash": "0x3c3d7f4ae4200feefa282d2eeb41cd1fe86b6a0c2234b0206fb2f0c0c942b4ee",
      "transactionIndex": "0xb",
      "blockHash": "0xe96a797fc1ac420aef6564bdb88b51023e363ffe8ed503d532865880dd8299be",
      "blockNumber": "0x199e4f4",
      "gasUsed": "0xb84c",
      "effectiveGasPrice": "0x88525",
      "from": "0x12b2434a1022d5787bf06056f2885fe35de62bf8",
      "to": "0x10cea50486207f88abc954690fe80783e73c3bfe",
      "contractAddress": null,
      "l1BaseFeeScalar": "0x44d",
      "l1BlobBaseFee": "0x1",
      "l1BlobBaseFeeScalar": "0xa118b",
      "l1Fee": "0x216",
      "l1GasPrice": "0x10a",
      "l1GasUsed": "0x640"
    },
    {
      "status": "0x1",
      "cumulativeGasUsed": "0x266a98",
      "logs": [
        {
          "address": "0x000000000022d473030f116ddee9f6b43ac78ba3",
          "topics": [
            "0xda9fa7c1b00402c17d0161b249b1ab8bbec047c5a52207b9c112deffd817036b",
            "0x00000000000000000000000012b2434a1022d5787bf06056f2885fe35de62bf8",
            "0x00000000000000000000000010cea50486207f88abc954690fe80783e73c3bfe",
            "0x0000000000000000000000004b2c77d209d3405f41a037ec6c77f7f5b8e2ca80"
          ],
          "data": "0x000000000000000000000000ffffffffffffffffffffffffffffffffffffffff0000000000000000000000000000000000000000000000000000ffffffffffff",
          "blockHash": "0xe96a797fc1ac420aef6564bdb88b51023e363ffe8ed503d532865880dd8299be",
          "blockNumber": "0x199e4f4",
          "blockTimestamp": "0x684728c8",
          "transactionHash": "0x6563380c0c5456fc08d68921d716cda4eff4c501ff4a5335ec1a696c8539f26c",
          "transactionIndex": "0xc",
          "logIndex": "0x27",
          "removed": false
        }
      ],
      "logsBloom": "0x00010000000000010000000000000000000000000000000000000000000000000000000000000000000000000000000000000000000000000008000010080000000000000000000000000000200000000000000000000000020000000000000000000000000000000000000000000000000000000000000000000000000000000020000000000000000000000000000000000000000000000000000000000010000000000000000100000000000000000000000400000000000000080000000400000000000000000000000000000000000000000000000040000000000000000000000000000000000000000000000000000000000000000000000000000400",
      "type": "0x2",
      "transactionHash": "0x6563380c0c5456fc08d68921d716cda4eff4c501ff4a5335ec1a696c8539f26c",
      "transactionIndex": "0xc",
      "blockHash": "0xe96a797fc1ac420aef6564bdb88b51023e363ffe8ed503d532865880dd8299be",
      "blockNumber": "0x199e4f4",
      "gasUsed": "0xbaca",
      "effectiveGasPrice": "0x88525",
      "from": "0x12b2434a1022d5787bf06056f2885fe35de62bf8",
      "to": "0x000000000022d473030f116ddee9f6b43ac78ba3",
      "contractAddress": null,
      "l1BaseFeeScalar": "0x44d",
      "l1BlobBaseFee": "0x1",
      "l1BlobBaseFeeScalar": "0xa118b",
      "l1Fee": "0x260",
      "l1GasPrice": "0x10a",
      "l1GasUsed": "0x71d"
    },
    {
      "status": "0x1",
      "cumulativeGasUsed": "0x2722e4",
      "logs": [
        {
          "address": "0x8b39c6b0fb43d18bf2b82f9d6bfd966c173da42a",
          "topics": [
            "0x8c5be1e5ebec7d5bd14f71427d1e84f3dd0314c0f7b2291e5b200ac8c7c3b925",
            "0x00000000000000000000000012b2434a1022d5787bf06056f2885fe35de62bf8",
            "0x000000000000000000000000000000000022d473030f116ddee9f6b43ac78ba3"
          ],
          "data": "0xffffffffffffffffffffffffffffffffffffffffffffffffffffffffffffffff",
          "blockHash": "0xe96a797fc1ac420aef6564bdb88b51023e363ffe8ed503d532865880dd8299be",
          "blockNumber": "0x199e4f4",
          "blockTimestamp": "0x684728c8",
          "transactionHash": "0x6651904d190fbd45692e717ecb8774a803396f8c9163b612b3dc1d719382dd3f",
          "transactionIndex": "0xd",
          "logIndex": "0x28",
          "removed": false
        }
      ],
      "logsBloom": "0x00000000000000000000000000000000000000000000000000000000000000000000000000400000000000000000000000000000800000000000000000200000000000000000000000004000200000000000000000000800000000000000000000000000000000000000000000000000000000000000000000000000000000000000000000000000000000000000000000000000000000000000000000000010020000000000000000000000000000000000000400000000000000000000020000000000000000000000000000000000000000000000000000000000000000000010000000000000000000000000000000000000000000000000000000000000",
      "type": "0x2",
      "transactionHash": "0x6651904d190fbd45692e717ecb8774a803396f8c9163b612b3dc1d719382dd3f",
      "transactionIndex": "0xd",
      "blockHash": "0xe96a797fc1ac420aef6564bdb88b51023e363ffe8ed503d532865880dd8299be",
      "blockNumber": "0x199e4f4",
      "gasUsed": "0xb84c",
      "effectiveGasPrice": "0x88525",
      "from": "0x12b2434a1022d5787bf06056f2885fe35de62bf8",
      "to": "0x8b39c6b0fb43d18bf2b82f9d6bfd966c173da42a",
      "contractAddress": null,
      "l1BaseFeeScalar": "0x44d",
      "l1BlobBaseFee": "0x1",
      "l1BlobBaseFeeScalar": "0xa118b",
      "l1Fee": "0x216",
      "l1GasPrice": "0x10a",
      "l1GasUsed": "0x640"
    },
    {
      "status": "0x1",
      "cumulativeGasUsed": "0x27ddae",
      "logs": [
        {
          "address": "0x000000000022d473030f116ddee9f6b43ac78ba3",
          "topics": [
            "0xda9fa7c1b00402c17d0161b249b1ab8bbec047c5a52207b9c112deffd817036b",
            "0x00000000000000000000000012b2434a1022d5787bf06056f2885fe35de62bf8",
            "0x0000000000000000000000008b39c6b0fb43d18bf2b82f9d6bfd966c173da42a",
            "0x0000000000000000000000004b2c77d209d3405f41a037ec6c77f7f5b8e2ca80"
          ],
          "data": "0x000000000000000000000000ffffffffffffffffffffffffffffffffffffffff0000000000000000000000000000000000000000000000000000ffffffffffff",
          "blockHash": "0xe96a797fc1ac420aef6564bdb88b51023e363ffe8ed503d532865880dd8299be",
          "blockNumber": "0x199e4f4",
          "blockTimestamp": "0x684728c8",
          "transactionHash": "0x27c75952e64bf5a89a6a9ba887323d632a6d501337e23922be054830944bf6df",
          "transactionIndex": "0xe",
          "logIndex": "0x29",
          "removed": false
        }
      ],
      "logsBloom": "0x00010000000000010000000000000000000000000000000000000000000000000000000000000000000000000000000000000000000000000008000010080000000000000000000000000000200000000000000000000000000100000000000000000000000000000000000000000000000000000000000000000000000000000020000000000000000000000000000000002000000000000000000000000010000000000000000000000000000000000000000400000000010000080000000000000000000000000000000000000000000000000000000040000000000000000000000000000000000000000000000000000000000000000000000000000400",
      "type": "0x2",
      "transactionHash": "0x27c75952e64bf5a89a6a9ba887323d632a6d501337e23922be054830944bf6df",
      "transactionIndex": "0xe",
      "blockHash": "0xe96a797fc1ac420aef6564bdb88b51023e363ffe8ed503d532865880dd8299be",
      "blockNumber": "0x199e4f4",
      "gasUsed": "0xbaca",
      "effectiveGasPrice": "0x88525",
      "from": "0x12b2434a1022d5787bf06056f2885fe35de62bf8",
      "to": "0x000000000022d473030f116ddee9f6b43ac78ba3",
      "contractAddress": null,
      "l1BaseFeeScalar": "0x44d",
      "l1BlobBaseFee": "0x1",
      "l1BlobBaseFeeScalar": "0xa118b",
      "l1Fee": "0x25c",
      "l1GasPrice": "0x10a",
      "l1GasUsed": "0x710"
    },
    {
      "status": "0x1",
      "cumulativeGasUsed": "0x2e8c93",
      "logs": [
        {
          "address": "0x05e73354cfdd6745c338b50bcfdfa3aa6fa03408",
          "topics": [
            "0xdd466e674ea557f56295e2d0218a125ea4b4f0f6f3307b95f85e6110838d6438",
            "0x5924dae9ff6b04707f8c4cc308949a1fb3387764c2d4a64690ad2b5f9fb28cee",
            "0x00000000000000000000000010cea50486207f88abc954690fe80783e73c3bfe",
            "0x0000000000000000000000008b39c6b0fb43d18bf2b82f9d6bfd966c173da42a"
          ],
          "data": "0x0000000000000000000000000000000000000000000000000000000000000bb8000000000000000000000000000000000000000000000000000000000000003c00000000000000000000000000000000000000000000000000000000000000000000000000000000000000000000000000000000b504f333f9de6484597d89b3ffffffffffffffffffffffffffffffffffffffffffffffffffffffffffffe4ec",
          "blockHash": "0xe96a797fc1ac420aef6564bdb88b51023e363ffe8ed503d532865880dd8299be",
          "blockNumber": "0x199e4f4",
          "blockTimestamp": "0x684728c8",
          "transactionHash": "0x5055db5a536b87329620b57563b7ff1954be15ca889998746285a671c3e8e704",
          "transactionIndex": "0xf",
          "logIndex": "0x2a",
          "removed": false
        },
        {
          "address": "0x4b2c77d209d3405f41a037ec6c77f7f5b8e2ca80",
          "topics": [
            "0xddf252ad1be2c89b69c2b068fc378daa952ba7f163c4a11628f55a4df523b3ef",
            "0x0000000000000000000000000000000000000000000000000000000000000000",
            "0x0000000000000000000000001804c8ab1f12e6bbf3894d4083f33e07309d1f38",
            "0x0000000000000000000000000000000000000000000000000000000000000544"
          ],
          "data": "0x",
          "blockHash": "0xe96a797fc1ac420aef6564bdb88b51023e363ffe8ed503d532865880dd8299be",
          "blockNumber": "0x199e4f4",
          "blockTimestamp": "0x684728c8",
          "transactionHash": "0x5055db5a536b87329620b57563b7ff1954be15ca889998746285a671c3e8e704",
          "transactionIndex": "0xf",
          "logIndex": "0x2b",
          "removed": false
        },
        {
          "address": "0x05e73354cfdd6745c338b50bcfdfa3aa6fa03408",
          "topics": [
            "0xf208f4912782fd25c7f114ca3723a2d5dd6f3bcc3ac8db5af63baa85f711d5ec",
            "0x5924dae9ff6b04707f8c4cc308949a1fb3387764c2d4a64690ad2b5f9fb28cee",
            "0x0000000000000000000000004b2c77d209d3405f41a037ec6c77f7f5b8e2ca80"
          ],
          "data": "0xffffffffffffffffffffffffffffffffffffffffffffffffffffffffffffcd9cfffffffffffffffffffffffffffffffffffffffffffffffffffffffffffffc7c00000000000000000000000000000000000000000000021e19e0c9bab24000000000000000000000000000000000000000000000000000000000000000000544",
          "blockHash": "0xe96a797fc1ac420aef6564bdb88b51023e363ffe8ed503d532865880dd8299be",
          "blockNumber": "0x199e4f4",
          "blockTimestamp": "0x684728c8",
          "transactionHash": "0x5055db5a536b87329620b57563b7ff1954be15ca889998746285a671c3e8e704",
          "transactionIndex": "0xf",
          "logIndex": "0x2c",
          "removed": false
        },
        {
          "address": "0x10cea50486207f88abc954690fe80783e73c3bfe",
          "topics": [
            "0xddf252ad1be2c89b69c2b068fc378daa952ba7f163c4a11628f55a4df523b3ef",
            "0x00000000000000000000000012b2434a1022d5787bf06056f2885fe35de62bf8",
            "0x00000000000000000000000005e73354cfdd6745c338b50bcfdfa3aa6fa03408"
          ],
          "data": "0x0000000000000000000000000000000000000000000000c7985b6cad05ea113c",
          "blockHash": "0xe96a797fc1ac420aef6564bdb88b51023e363ffe8ed503d532865880dd8299be",
          "blockNumber": "0x199e4f4",
          "blockTimestamp": "0x684728c8",
          "transactionHash": "0x5055db5a536b87329620b57563b7ff1954be15ca889998746285a671c3e8e704",
          "transactionIndex": "0xf",
          "logIndex": "0x2d",
          "removed": false
        },
        {
          "address": "0x8b39c6b0fb43d18bf2b82f9d6bfd966c173da42a",
          "topics": [
            "0xddf252ad1be2c89b69c2b068fc378daa952ba7f163c4a11628f55a4df523b3ef",
            "0x00000000000000000000000012b2434a1022d5787bf06056f2885fe35de62bf8",
            "0x00000000000000000000000005e73354cfdd6745c338b50bcfdfa3aa6fa03408"
          ],
          "data": "0x000000000000000000000000000000000000000000000062e4e0560eeb2037a6",
          "blockHash": "0xe96a797fc1ac420aef6564bdb88b51023e363ffe8ed503d532865880dd8299be",
          "blockNumber": "0x199e4f4",
          "blockTimestamp": "0x684728c8",
          "transactionHash": "0x5055db5a536b87329620b57563b7ff1954be15ca889998746285a671c3e8e704",
          "transactionIndex": "0xf",
          "logIndex": "0x2e",
          "removed": false
        }
      ],
      "logsBloom": "0x00000000000000010000000000000000000000000000000000000000000000000100000100400000000000000000000000000000000000000008000010000800000000000010000000000008200000400000000000100800020100008000000000000080020000000001000000000800000000000000000000000010000000000000000005000008002004000000000000002001000000000000000000200010000104000000000900000000000000000004080400000000010000000000020400000002001004400000000000000000000000000000000000000000000020000400000000000000000000000800000004000000000000000000000000000000",
      "type": "0x2",
      "transactionHash": "0x5055db5a536b87329620b57563b7ff1954be15ca889998746285a671c3e8e704",
      "transactionIndex": "0xf",
      "blockHash": "0xe96a797fc1ac420aef6564bdb88b51023e363ffe8ed503d532865880dd8299be",
      "blockNumber": "0x199e4f4",
      "gasUsed": "0x6aee5",
      "effectiveGasPrice": "0x88525",
      "from": "0x12b2434a1022d5787bf06056f2885fe35de62bf8",
      "to": "0x4b2c77d209d3405f41a037ec6c77f7f5b8e2ca80",
      "contractAddress": null,
      "l1BaseFeeScalar": "0x44d",
      "l1BlobBaseFee": "0x1",
      "l1BlobBaseFeeScalar": "0xa118b",
      "l1Fee": "0x691",
      "l1GasPrice": "0x10a",
      "l1GasUsed": "0x13a9"
    }
  ],
  "libraries": [],
  "pending": [],
  "returns": {},
  "timestamp": 1749493959,
  "chain": 84532,
  "commit": "c8a4207"
}