{
  "transactions": [
    {
      "hash": "0x9d4d3add89a7fa6b1f0840d8e543844b711b14838c30fcb233f1de13117f7e30",
      "transactionType": "CALL",
      "contractName": null,
      "contractAddress": "0x8b39c6b0fb43d18bf2b82f9d6bfd966c173da42a",
      "function": "approve(address,uint256)",
      "arguments": [
        "0x000000000022D473030F116dDEE9F6B43aC78BA3",
        "115792089237316195423570985008687907853269984665640564039457584007913129639935"
      ],
      "transaction": {
        "from": "0x12b2434a1022d5787bf06056f2885fe35de62bf8",
        "to": "0x8b39c6b0fb43d18bf2b82f9d6bfd966c173da42a",
        "gas": "0x9330",
        "value": "0x0",
        "input": "0x095ea7b3000000000000000000000000000000000022d473030f116ddee9f6b43ac78ba3ffffffffffffffffffffffffffffffffffffffffffffffffffffffffffffffff",
        "nonce": "0x272",
        "chainId": "0x14a34"
      },
      "additionalContracts": [],
      "isFixedGasLimit": false
    },
    {
      "hash": "0xb935fc8f6b858d1d404813ac719434329555f3828a6b1fdb746d57ec52291ac0",
      "transactionType": "CALL",
      "contractName": null,
      "contractAddress": "0x000000000022d473030f116ddee9f6b43ac78ba3",
      "function": "approve(address,address,uint160,uint48)",
      "arguments": [
        "0x8b39C6b0FB43D18Bf2b82f9D6BfD966c173dA42A",
        "0x4B2C77d209D3405F41a037Ec6c77F7F5b8e2ca80",
        "1461501637330902918203684832716283019655932542975",
        "281474976710655"
      ],
      "transaction": {
        "from": "0x12b2434a1022d5787bf06056f2885fe35de62bf8",
        "to": "0x000000000022d473030f116ddee9f6b43ac78ba3",
        "gas": "0x96a0",
        "value": "0x0",
        "input": "0x87517c450000000000000000000000008b39c6b0fb43d18bf2b82f9d6bfd966c173da42a0000000000000000000000004b2c77d209d3405f41a037ec6c77f7f5b8e2ca80000000000000000000000000ffffffffffffffffffffffffffffffffffffffff0000000000000000000000000000000000000000000000000000ffffffffffff",
        "nonce": "0x273",
        "chainId": "0x14a34"
      },
      "additionalContracts": [],
      "isFixedGasLimit": false
    },
    {
      "hash": "0x34c43304552806fa494c1ec4303fa2947aa68edb2dab726f8cd2fd2a30f7e0f2",
      "transactionType": "CALL",
      "contractName": null,
      "contractAddress": "0x8cf1aa2c13366c82767972b1ae35677dcff28f52",
      "function": "approve(address,uint256)",
      "arguments": [
        "0x000000000022D473030F116dDEE9F6B43aC78BA3",
        "115792089237316195423570985008687907853269984665640564039457584007913129639935"
      ],
      "transaction": {
        "from": "0x12b2434a1022d5787bf06056f2885fe35de62bf8",
        "to": "0x8cf1aa2c13366c82767972b1ae35677dcff28f52",
        "gas": "0xfe8e",
        "value": "0x0",
        "input": "0x095ea7b3000000000000000000000000000000000022d473030f116ddee9f6b43ac78ba3ffffffffffffffffffffffffffffffffffffffffffffffffffffffffffffffff",
        "nonce": "0x274",
        "chainId": "0x14a34"
      },
      "additionalContracts": [],
      "isFixedGasLimit": false
    },
    {
      "hash": "0xe8d191ad74d2911929fc2ab51b9178b78fa7722fd3f11a761ea0f6b7daf9ac9e",
      "transactionType": "CALL",
      "contractName": null,
      "contractAddress": "0x000000000022d473030f116ddee9f6b43ac78ba3",
      "function": "approve(address,address,uint160,uint48)",
      "arguments": [
        "0x8CF1Aa2c13366c82767972B1AE35677dCfF28F52",
        "0x4B2C77d209D3405F41a037Ec6c77F7F5b8e2ca80",
        "1461501637330902918203684832716283019655932542975",
        "281474976710655"
      ],
      "transaction": {
        "from": "0x12b2434a1022d5787bf06056f2885fe35de62bf8",
        "to": "0x000000000022d473030f116ddee9f6b43ac78ba3",
        "gas": "0x1112d",
        "value": "0x0",
        "input": "0x87517c450000000000000000000000008cf1aa2c13366c82767972b1ae35677dcff28f520000000000000000000000004b2c77d209d3405f41a037ec6c77f7f5b8e2ca80000000000000000000000000ffffffffffffffffffffffffffffffffffffffff0000000000000000000000000000000000000000000000000000ffffffffffff",
        "nonce": "0x275",
        "chainId": "0x14a34"
      },
      "additionalContracts": [],
      "isFixedGasLimit": false
    },
    {
      "hash": "0xafde107c0e8b71996a00f572c27d4abd75d1028e711d4329950cf23abf74af0e",
      "transactionType": "CALL",
      "contractName": null,
      "contractAddress": "0x4b2c77d209d3405f41a037ec6c77f7f5b8e2ca80",
      "function": "multicall(bytes[])",
      "arguments": [
        "[0xf70204050000000000000000000000008b39c6b0fb43d18bf2b82f9d6bfd966c173da42a0000000000000000000000008cf1aa2c13366c82767972b1ae35677dcff28f520000000000000000000000000000000000000000000000000000000000000bb8000000000000000000000000000000000000000000000000000000000000003c00000000000000000000000000000000000000000000000000000000000000000000000000000000000000000000000000000001000000000000000000000000, 0xdd46508f0000000000000000000000000000000000000000000000000000000000000040000000000000000000000000000000000000000000000000000000006849423e0000000000000000000000000000000000000000000000000000000000000300000000000000000000000000000000000000000000000000000000000000004000000000000000000000000000000000000000000000000000000000000000800000000000000000000000000000000000000000000000000000000000000002020d00000000000000000000000000000000000000000000000000000000000000000000000000000000000000000000000000000000000000000000000000020000000000000000000000000000000000000000000000000000000000000040000000000000000000000000000000000000000000000000000000000000020000000000000000000000000000000000000000000000000000000000000001a00000000000000000000000008b39c6b0fb43d18bf2b82f9d6bfd966c173da42a0000000000000000000000008cf1aa2c13366c82767972b1ae35677dcff28f520000000000000000000000000000000000000000000000000000000000000bb8000000000000000000000000000000000000000000000000000000000000003c0000000000000000000000000000000000000000000000000000000000000000ffffffffffffffffffffffffffffffffffffffffffffffffffffffffffffe890000000000000000000000000000000000000000000000000000000000000177000000000000000000000000000000000000000000000021e19e0c9bab2400000000000000000000000000000000000000000000000000118fe4f869b12f41c20000000000000000000000000000000000000000000000118fe4f869b12f41c2000000000000000000000000012b2434a1022d5787bf06056f2885fe35de62bf80000000000000000000000000000000000000000000000000000000000000180000000000000000000000000000000000000000000000000000000000000000000000000000000000000000000000000000000000000000000000000000000400000000000000000000000008b39c6b0fb43d18bf2b82f9d6bfd966c173da42a0000000000000000000000008cf1aa2c13366c82767972b1ae35677dcff28f52]"
      ],
      "transaction": {
        "from": "0x12b2434a1022d5787bf06056f2885fe35de62bf8",
        "to": "0x4b2c77d209d3405f41a037ec6c77f7f5b8e2ca80",
        "gas": "0x9de86",
        "value": "0x0",
        "input": "0xac9650d8000000000000000000000000000000000000000000000000000000000000002000000000000000000000000000000000000000000000000000000000000000020000000000000000000000000000000000000000000000000000000000000040000000000000000000000000000000000000000000000000000000000000014000000000000000000000000000000000000000000000000000000000000000c4f70204050000000000000000000000008b39c6b0fb43d18bf2b82f9d6bfd966c173da42a0000000000000000000000008cf1aa2c13366c82767972b1ae35677dcff28f520000000000000000000000000000000000000000000000000000000000000bb8000000000000000000000000000000000000000000000000000000000000003c00000000000000000000000000000000000000000000000000000000000000000000000000000000000000000000000000000001000000000000000000000000000000000000000000000000000000000000000000000000000000000000000000000000000000000000000000000000000000000000000000000364dd46508f0000000000000000000000000000000000000000000000000000000000000040000000000000000000000000000000000000000000000000000000006849423e0000000000000000000000000000000000000000000000000000000000000300000000000000000000000000000000000000000000000000000000000000004000000000000000000000000000000000000000000000000000000000000000800000000000000000000000000000000000000000000000000000000000000002020d00000000000000000000000000000000000000000000000000000000000000000000000000000000000000000000000000000000000000000000000000020000000000000000000000000000000000000000000000000000000000000040000000000000000000000000000000000000000000000000000000000000020000000000000000000000000000000000000000000000000000000000000001a00000000000000000000000008b39c6b0fb43d18bf2b82f9d6bfd966c173da42a0000000000000000000000008cf1aa2c13366c82767972b1ae35677dcff28f520000000000000000000000000000000000000000000000000000000000000bb8000000000000000000000000000000000000000000000000000000000000003c0000000000000000000000000000000000000000000000000000000000000000ffffffffffffffffffffffffffffffffffffffffffffffffffffffffffffe890000000000000000000000000000000000000000000000000000000000000177000000000000000000000000000000000000000000000021e19e0c9bab2400000000000000000000000000000000000000000000000000118fe4f869b12f41c20000000000000000000000000000000000000000000000118fe4f869b12f41c2000000000000000000000000012b2434a1022d5787bf06056f2885fe35de62bf80000000000000000000000000000000000000000000000000000000000000180000000000000000000000000000000000000000000000000000000000000000000000000000000000000000000000000000000000000000000000000000000400000000000000000000000008b39c6b0fb43d18bf2b82f9d6bfd966c173da42a0000000000000000000000008cf1aa2c13366c82767972b1ae35677dcff28f5200000000000000000000000000000000000000000000000000000000",
        "nonce": "0x276",
        "chainId": "0x14a34"
      },
      "additionalContracts": [],
      "isFixedGasLimit": false
    }
  ],
  "receipts": [
    {
      "status": "0x1",
      "cumulativeGasUsed": "0x96da63",
      "logs": [
        {
          "address": "0x8b39c6b0fb43d18bf2b82f9d6bfd966c173da42a",
          "topics": [
            "0x8c5be1e5ebec7d5bd14f71427d1e84f3dd0314c0f7b2291e5b200ac8c7c3b925",
            "0x00000000000000000000000012b2434a1022d5787bf06056f2885fe35de62bf8",
            "0x000000000000000000000000000000000022d473030f116ddee9f6b43ac78ba3"
          ],
          "data": "0xffffffffffffffffffffffffffffffffffffffffffffffffffffffffffffffff",
          "blockHash": "0x2f69e1e90e8865662148a947f115ec520e92c5886f5c4f71b507a91b5c1aecd7",
          "blockNumber": "0x19af199",
          "transactionHash": "0x9d4d3add89a7fa6b1f0840d8e543844b711b14838c30fcb233f1de13117f7e30",
          "transactionIndex": "0x19",
          "logIndex": "0xe0",
          "removed": false
        }
      ],
      "logsBloom": "0x00000000000000000000000000000000000000000000000000000000000000000000000000400000000000000000000000000000800000000000000000200000000000000000000000004000200000000000000000000800000000000000000000000000000000000000000000000000000000000000000000000000000000000000000000000000000000000000000000000000000000000000000000000010020000000000000000000000000000000000000400000000000000000000020000000000000000000000000000000000000000000000000000000000000000000010000000000000000000000000000000000000000000000000000000000000",
      "type": "0x2",
      "transactionHash": "0x9d4d3add89a7fa6b1f0840d8e543844b711b14838c30fcb233f1de13117f7e30",
      "transactionIndex": "0x19",
      "blockHash": "0x2f69e1e90e8865662148a947f115ec520e92c5886f5c4f71b507a91b5c1aecd7",
      "blockNumber": "0x19af199",
      "gasUsed": "0x6a90",
      "effectiveGasPrice": "0x18d",
      "from": "0x12b2434a1022d5787bf06056f2885fe35de62bf8",
      "to": "0x8b39c6b0fb43d18bf2b82f9d6bfd966c173da42a",
      "contractAddress": null,
      "l1BaseFeeScalar": "0x44d",
      "l1BlobBaseFee": "0xd0",
      "l1BlobBaseFeeScalar": "0xa118b",
      "l1Fee": "0x20aa490",
      "l1GasPrice": "0x128914b",
      "l1GasUsed": "0x640"
    },
    {
      "status": "0x1",
      "cumulativeGasUsed": "0x974771",
      "logs": [
        {
          "address": "0x000000000022d473030f116ddee9f6b43ac78ba3",
          "topics": [
            "0xda9fa7c1b00402c17d0161b249b1ab8bbec047c5a52207b9c112deffd817036b",
            "0x00000000000000000000000012b2434a1022d5787bf06056f2885fe35de62bf8",
            "0x0000000000000000000000008b39c6b0fb43d18bf2b82f9d6bfd966c173da42a",
            "0x0000000000000000000000004b2c77d209d3405f41a037ec6c77f7f5b8e2ca80"
          ],
          "data": "0x000000000000000000000000ffffffffffffffffffffffffffffffffffffffff0000000000000000000000000000000000000000000000000000ffffffffffff",
          "blockHash": "0x2f69e1e90e8865662148a947f115ec520e92c5886f5c4f71b507a91b5c1aecd7",
          "blockNumber": "0x19af199",
          "transactionHash": "0xb935fc8f6b858d1d404813ac719434329555f3828a6b1fdb746d57ec52291ac0",
          "transactionIndex": "0x1a",
          "logIndex": "0xe1",
          "removed": false
        }
      ],
      "logsBloom": "0x00010000000000010000000000000000000000000000000000000000000000000000000000000000000000000000000000000000000000000008000010080000000000000000000000000000200000000000000000000000000100000000000000000000000000000000000000000000000000000000000000000000000000000020000000000000000000000000000000002000000000000000000000000010000000000000000000000000000000000000000400000000010000080000000000000000000000000000000000000000000000000000000040000000000000000000000000000000000000000000000000000000000000000000000000000400",
      "type": "0x2",
      "transactionHash": "0xb935fc8f6b858d1d404813ac719434329555f3828a6b1fdb746d57ec52291ac0",
      "transactionIndex": "0x1a",
      "blockHash": "0x2f69e1e90e8865662148a947f115ec520e92c5886f5c4f71b507a91b5c1aecd7",
      "blockNumber": "0x19af199",
      "gasUsed": "0x6d0e",
      "effectiveGasPrice": "0x18d",
      "from": "0x12b2434a1022d5787bf06056f2885fe35de62bf8",
      "to": "0x000000000022d473030f116ddee9f6b43ac78ba3",
      "contractAddress": null,
      "l1BaseFeeScalar": "0x44d",
      "l1BlobBaseFee": "0xd0",
      "l1BlobBaseFeeScalar": "0xa118b",
      "l1Fee": "0x245dc3f",
      "l1GasPrice": "0x128914b",
      "l1GasUsed": "0x6f5"
    },
    {
      "status": "0x1",
      "cumulativeGasUsed": "0x97ffbd",
      "logs": [
        {
          "address": "0x8cf1aa2c13366c82767972b1ae35677dcff28f52",
          "topics": [
            "0x8c5be1e5ebec7d5bd14f71427d1e84f3dd0314c0f7b2291e5b200ac8c7c3b925",
            "0x00000000000000000000000012b2434a1022d5787bf06056f2885fe35de62bf8",
            "0x000000000000000000000000000000000022d473030f116ddee9f6b43ac78ba3"
          ],
          "data": "0xffffffffffffffffffffffffffffffffffffffffffffffffffffffffffffffff",
          "blockHash": "0x2f69e1e90e8865662148a947f115ec520e92c5886f5c4f71b507a91b5c1aecd7",
          "blockNumber": "0x19af199",
          "transactionHash": "0x34c43304552806fa494c1ec4303fa2947aa68edb2dab726f8cd2fd2a30f7e0f2",
          "transactionIndex": "0x1b",
          "logIndex": "0xe2",
          "removed": false
        }
      ],
      "logsBloom": "0x00000000000000000000000000000000000000000000000000000000000000000000000000000000000000000000000000000000800000000000000000200000000000000000000000004000200000000000000000000800000000000000000000000000000000000000000000000000000000000000040000000000000000000000000000000000000000000000000000000000000000000000000000000010024000000000000000000000000000000000000400000000000000000000000000000000000000000000000000040000000000000000000000000000000000000010000000000000000000000000000000000000000000000000000000000000",
      "type": "0x2",
      "transactionHash": "0x34c43304552806fa494c1ec4303fa2947aa68edb2dab726f8cd2fd2a30f7e0f2",
      "transactionIndex": "0x1b",
      "blockHash": "0x2f69e1e90e8865662148a947f115ec520e92c5886f5c4f71b507a91b5c1aecd7",
      "blockNumber": "0x19af199",
      "gasUsed": "0xb84c",
      "effectiveGasPrice": "0x18d",
      "from": "0x12b2434a1022d5787bf06056f2885fe35de62bf8",
      "to": "0x8cf1aa2c13366c82767972b1ae35677dcff28f52",
      "contractAddress": null,
      "l1BaseFeeScalar": "0x44d",
      "l1BlobBaseFee": "0xd0",
      "l1BlobBaseFeeScalar": "0xa118b",
      "l1Fee": "0x20aa490",
      "l1GasPrice": "0x128914b",
      "l1GasUsed": "0x640"
    },
    {
      "status": "0x1",
      "cumulativeGasUsed": "0x98ba87",
      "logs": [
        {
          "address": "0x000000000022d473030f116ddee9f6b43ac78ba3",
          "topics": [
            "0xda9fa7c1b00402c17d0161b249b1ab8bbec047c5a52207b9c112deffd817036b",
            "0x00000000000000000000000012b2434a1022d5787bf06056f2885fe35de62bf8",
            "0x0000000000000000000000008cf1aa2c13366c82767972b1ae35677dcff28f52",
            "0x0000000000000000000000004b2c77d209d3405f41a037ec6c77f7f5b8e2ca80"
          ],
          "data": "0x000000000000000000000000ffffffffffffffffffffffffffffffffffffffff0000000000000000000000000000000000000000000000000000ffffffffffff",
          "blockHash": "0x2f69e1e90e8865662148a947f115ec520e92c5886f5c4f71b507a91b5c1aecd7",
          "blockNumber": "0x19af199",
          "transactionHash": "0xe8d191ad74d2911929fc2ab51b9178b78fa7722fd3f11a761ea0f6b7daf9ac9e",
          "transactionIndex": "0x1c",
          "logIndex": "0xe3",
          "removed": false
        }
      ],
      "logsBloom": "0x00010000000000010000000000000000000080000000000000000000000000000000000000000000000000000000000000000000000000000008000010080000000000000000000000000000200000000000000000000000000000000000000000000000000000000000000000000000000000000000000000008000000000000020000000000000000000000000000000000000008000000000000000000010000000000000000000000000000000000000000400000000000000080000000000000000000000000000000000000000000000000000000040000000000000000000000000000000000000000000000000000000000000000000000000000400",
      "type": "0x2",
      "transactionHash": "0xe8d191ad74d2911929fc2ab51b9178b78fa7722fd3f11a761ea0f6b7daf9ac9e",
      "transactionIndex": "0x1c",
      "blockHash": "0x2f69e1e90e8865662148a947f115ec520e92c5886f5c4f71b507a91b5c1aecd7",
      "blockNumber": "0x19af199",
      "gasUsed": "0xbaca",
      "effectiveGasPrice": "0x18d",
      "from": "0x12b2434a1022d5787bf06056f2885fe35de62bf8",
      "to": "0x000000000022d473030f116ddee9f6b43ac78ba3",
      "contractAddress": null,
      "l1BaseFeeScalar": "0x44d",
      "l1BlobBaseFee": "0xd0",
      "l1BlobBaseFeeScalar": "0xa118b",
      "l1Fee": "0x24a3b74",
      "l1GasPrice": "0x128914b",
      "l1GasUsed": "0x702"
    },
    {
      "status": "0x1",
      "cumulativeGasUsed": "0x9f7a11",
      "logs": [
        {
          "address": "0x05e73354cfdd6745c338b50bcfdfa3aa6fa03408",
          "topics": [
            "0xdd466e674ea557f56295e2d0218a125ea4b4f0f6f3307b95f85e6110838d6438",
            "0x2ea53553b1504c8256325fcd0e56c9e2e258441d561f86059e3e6a7c26a9dd07",
            "0x0000000000000000000000008b39c6b0fb43d18bf2b82f9d6bfd966c173da42a",
            "0x0000000000000000000000008cf1aa2c13366c82767972b1ae35677dcff28f52"
          ],
          "data": "0x0000000000000000000000000000000000000000000000000000000000000bb8000000000000000000000000000000000000000000000000000000000000003c000000000000000000000000000000000000000000000000000000000000000000000000000000000000000000000000000000010000000000000000000000000000000000000000000000000000000000000000000000000000000000000000",
          "blockHash": "0x2f69e1e90e8865662148a947f115ec520e92c5886f5c4f71b507a91b5c1aecd7",
          "blockNumber": "0x19af199",
          "transactionHash": "0xafde107c0e8b71996a00f572c27d4abd75d1028e711d4329950cf23abf74af0e",
          "transactionIndex": "0x1d",
          "logIndex": "0xe4",
          "removed": false
        },
        {
          "address": "0x4b2c77d209d3405f41a037ec6c77f7f5b8e2ca80",
          "topics": [
            "0xddf252ad1be2c89b69c2b068fc378daa952ba7f163c4a11628f55a4df523b3ef",
            "0x0000000000000000000000000000000000000000000000000000000000000000",
            "0x00000000000000000000000012b2434a1022d5787bf06056f2885fe35de62bf8",
            "0x0000000000000000000000000000000000000000000000000000000000000598"
          ],
          "data": "0x",
          "blockHash": "0x2f69e1e90e8865662148a947f115ec520e92c5886f5c4f71b507a91b5c1aecd7",
          "blockNumber": "0x19af199",
          "transactionHash": "0xafde107c0e8b71996a00f572c27d4abd75d1028e711d4329950cf23abf74af0e",
          "transactionIndex": "0x1d",
          "logIndex": "0xe5",
          "removed": false
        },
        {
          "address": "0x05e73354cfdd6745c338b50bcfdfa3aa6fa03408",
          "topics": [
            "0xf208f4912782fd25c7f114ca3723a2d5dd6f3bcc3ac8db5af63baa85f711d5ec",
            "0x2ea53553b1504c8256325fcd0e56c9e2e258441d561f86059e3e6a7c26a9dd07",
            "0x0000000000000000000000004b2c77d209d3405f41a037ec6c77f7f5b8e2ca80"
          ],
          "data": "0xffffffffffffffffffffffffffffffffffffffffffffffffffffffffffffe890000000000000000000000000000000000000000000000000000000000000177000000000000000000000000000000000000000000000021e19e0c9bab24000000000000000000000000000000000000000000000000000000000000000000598",
          "blockHash": "0x2f69e1e90e8865662148a947f115ec520e92c5886f5c4f71b507a91b5c1aecd7",
          "blockNumber": "0x19af199",
          "transactionHash": "0xafde107c0e8b71996a00f572c27d4abd75d1028e711d4329950cf23abf74af0e",
          "transactionIndex": "0x1d",
          "logIndex": "0xe6",
          "removed": false
        },
        {
          "address": "0x8b39c6b0fb43d18bf2b82f9d6bfd966c173da42a",
          "topics": [
            "0xddf252ad1be2c89b69c2b068fc378daa952ba7f163c4a11628f55a4df523b3ef",
            "0x00000000000000000000000012b2434a1022d5787bf06056f2885fe35de62bf8",
            "0x00000000000000000000000005e73354cfdd6745c338b50bcfdfa3aa6fa03408"
          ],
          "data": "0x00000000000000000000000000000000000000000000008c7f27c34d897a0e11",
          "blockHash": "0x2f69e1e90e8865662148a947f115ec520e92c5886f5c4f71b507a91b5c1aecd7",
          "blockNumber": "0x19af199",
          "transactionHash": "0xafde107c0e8b71996a00f572c27d4abd75d1028e711d4329950cf23abf74af0e",
          "transactionIndex": "0x1d",
          "logIndex": "0xe7",
          "removed": false
        },
        {
          "address": "0x8cf1aa2c13366c82767972b1ae35677dcff28f52",
          "topics": [
            "0xddf252ad1be2c89b69c2b068fc378daa952ba7f163c4a11628f55a4df523b3ef",
            "0x00000000000000000000000012b2434a1022d5787bf06056f2885fe35de62bf8",
            "0x00000000000000000000000005e73354cfdd6745c338b50bcfdfa3aa6fa03408"
          ],
          "data": "0x00000000000000000000000000000000000000000000008c7f27c34d897a0e11",
          "blockHash": "0x2f69e1e90e8865662148a947f115ec520e92c5886f5c4f71b507a91b5c1aecd7",
          "blockNumber": "0x19af199",
          "transactionHash": "0xafde107c0e8b71996a00f572c27d4abd75d1028e711d4329950cf23abf74af0e",
          "transactionIndex": "0x1d",
          "logIndex": "0xe8",
          "removed": false
        }
      ],
      "logsBloom": "0x00000000000000010000000000000000000080000000000000000000000000000100000100400000000000000000000000000000000000000008000010000800000000000010000000000008200000000000000000100800000100008000000000000000020000000000020000000800000000000000040000008010000000000000000005000008000000000000000000002001008000000000200000200010004004000000000000000000000000000000000400000000010000000000020000000002001000000000010800040000000000080000000000000000000020000000000000000100000000000800000004000000000000000000000000000000",
      "type": "0x2",
      "transactionHash": "0xafde107c0e8b71996a00f572c27d4abd75d1028e711d4329950cf23abf74af0e",
      "transactionIndex": "0x1d",
      "blockHash": "0x2f69e1e90e8865662148a947f115ec520e92c5886f5c4f71b507a91b5c1aecd7",
      "blockNumber": "0x19af199",
      "gasUsed": "0x6bf8a",
      "effectiveGasPrice": "0x18d",
      "from": "0x12b2434a1022d5787bf06056f2885fe35de62bf8",
      "to": "0x4b2c77d209d3405f41a037ec6c77f7f5b8e2ca80",
      "contractAddress": null,
      "l1BaseFeeScalar": "0x44d",
      "l1BlobBaseFee": "0xd0",
      "l1BlobBaseFeeScalar": "0xa118b",
      "l1Fee": "0x5ed72d0",
      "l1GasPrice": "0x128914b",
      "l1GasUsed": "0x1225"
    }
  ],
  "libraries": [],
  "pending": [],
  "returns": {},
  "timestamp": 1749631507,
  "chain": 84532,
  "commit": "cb63d05"
}